{
  "contractName": "RentalContract",
  "abi": [
    {
      "constant": false,
      "inputs": [
        {
          "internalType": "address payable",
          "name": "landlordAddr",
          "type": "address"
        },
        {
          "internalType": "address payable",
          "name": "tenantAddr",
          "type": "address"
        },
        {
          "internalType": "uint256",
          "name": "monthlyAmount",
          "type": "uint256"
        },
        {
          "internalType": "uint256",
          "name": "numberMonths",
          "type": "uint256"
        }
      ],
      "name": "createNewContract",
      "outputs": [
        {
          "internalType": "uint256",
          "name": "contractID",
          "type": "uint256"
        }
      ],
      "payable": false,
      "stateMutability": "nonpayable",
      "type": "function"
    },
    {
      "constant": true,
      "inputs": [],
      "name": "getBalance",
      "outputs": [
        {
          "internalType": "uint256",
          "name": "",
          "type": "uint256"
        }
      ],
      "payable": false,
      "stateMutability": "view",
      "type": "function"
    },
    {
      "constant": false,
      "inputs": [
        {
          "internalType": "address payable",
          "name": "_To",
          "type": "address"
        }
      ],
      "name": "payRent",
      "outputs": [],
      "payable": true,
      "stateMutability": "payable",
      "type": "function"
    }
  ],
  "bytecode": "0x608060405234801561001057600080fd5b50610294806100206000396000f3fe6080604052600436106100345760003560e01c806312065fe01461003957806319e1031f14610064578063dc40bcbb146100fd575b600080fd5b34801561004557600080fd5b5061004e610141565b6040518082815260200191505060405180910390f35b34801561007057600080fd5b506100e76004803603608081101561008757600080fd5b81019080803573ffffffffffffffffffffffffffffffffffffffff169060200190929190803573ffffffffffffffffffffffffffffffffffffffff1690602001909291908035906020019092919080359060200190929190505050610149565b6040518082815260200191505060405180910390f35b61013f6004803603602081101561011357600080fd5b81019080803573ffffffffffffffffffffffffffffffffffffffff169060200190929190505050610215565b005b600047905090565b60006001600081548092919060010191905055905060008060008381526020019081526020016000209050858160000160006101000a81548173ffffffffffffffffffffffffffffffffffffffff021916908373ffffffffffffffffffffffffffffffffffffffff160217905550848160010160006101000a81548173ffffffffffffffffffffffffffffffffffffffff021916908373ffffffffffffffffffffffffffffffffffffffff16021790555083816002018190555082816003018190555050949350505050565b8073ffffffffffffffffffffffffffffffffffffffff166108fc349081150290604051600060405180830381858888f1935050505015801561025b573d6000803e3d6000fd5b505056fea265627a7a723158200c76232ba50136782a7082c6b3369c96fd90ff86e28373ce12cdd7ce95066d4064736f6c63430005100032",
  "source": "// SPDX-License-Identifier: MIT\npragma solidity >=0.4.21;\n\n// Smart contract for rental contract payments\ncontract RentalContract {\n\n    // Rental Contract Struct with all necessary variables\n    struct Contract {\n        address payable landlordAddr;\n        address payable tenantAddr;\n        uint monthlyAmount;\n        uint numberMonths;\n    }\n\n    mapping (uint => Contract) contracts;\n    uint numContracts;\n\n    // Create new contract between 2 users (landlord and tenant)\n    function createNewContract(address payable landlordAddr, address payable tenantAddr, uint monthlyAmount, uint numberMonths) public returns (uint contractID) {\n        contractID = numContracts++;\n        Contract storage newContract = contracts[contractID];\n        newContract.landlordAddr = landlordAddr;\n        newContract.tenantAddr = tenantAddr;\n        newContract.monthlyAmount = monthlyAmount;\n        newContract.numberMonths = numberMonths;\n    }\n\n    // Checks balance of account\n    function getBalance() public view returns(uint) {\n        return address(this).balance;\n    }\n\n    // Send money from one account to another account (transaction of money)  \n    function payRent(address payable _To) public payable {\n        _To.transfer(msg.value);\n        // _To.call{value: msg.value, gas: 2300}(abi.encodeWithSignature(signatureString, arg);) returns (bool, bytes);\n    }\n\n    // Upon start of new contract, initiate the start of monthly recurring payments\n    // Set up monthly recurring payments\n    // function setupMonthlyPayments() {\n\n    // }\n\n    // Terminate smart contract\n    // function terminateContract() {\n\n    // }\n\n}",
  "sourcePath": "/Users/katiebramlett/Documents/CSCI4243W-4244/Code/react-template/contracts/RentalContract.sol",
  "compiler": {
    "name": "solc",
    "version": "0.5.16+commit.9c3226ce.Emscripten.clang"
  },
  "schemaVersion": "3.4.3",
  "updatedAt": "2022-01-26T04:35:09.903Z",
  "networkType": "ethereum",
  "devdoc": {
    "methods": {}
  },
  "userdoc": {
    "methods": {}
  }
}