{
  "contractName": "RentalContract",
  "abi": [
    {
      "constant": false,
      "inputs": [
        {
          "internalType": "address payable",
          "name": "landlordAddr",
          "type": "address"
        },
        {
          "internalType": "address payable",
          "name": "tenantAddr",
          "type": "address"
        },
        {
          "internalType": "uint256",
          "name": "monthlyAmount",
          "type": "uint256"
        },
        {
          "internalType": "uint256",
          "name": "numberMonths",
          "type": "uint256"
        }
      ],
      "name": "createNewContract",
      "outputs": [
        {
          "internalType": "uint256",
          "name": "contractID",
          "type": "uint256"
        }
      ],
      "payable": false,
      "stateMutability": "nonpayable",
      "type": "function"
    },
    {
      "constant": true,
      "inputs": [],
      "name": "getBalance",
      "outputs": [
        {
          "internalType": "uint256",
          "name": "",
          "type": "uint256"
        }
      ],
      "payable": false,
      "stateMutability": "view",
      "type": "function"
    },
    {
      "constant": false,
      "inputs": [
        {
          "internalType": "address payable",
          "name": "_To",
          "type": "address"
        }
      ],
      "name": "payRent",
      "outputs": [],
      "payable": true,
      "stateMutability": "payable",
      "type": "function"
    }
  ],
  "bytecode": "0x608060405234801561001057600080fd5b50610294806100206000396000f3fe6080604052600436106100345760003560e01c806312065fe01461003957806319e1031f14610064578063dc40bcbb146100fd575b600080fd5b34801561004557600080fd5b5061004e610141565b6040518082815260200191505060405180910390f35b34801561007057600080fd5b506100e76004803603608081101561008757600080fd5b81019080803573ffffffffffffffffffffffffffffffffffffffff169060200190929190803573ffffffffffffffffffffffffffffffffffffffff1690602001909291908035906020019092919080359060200190929190505050610149565b6040518082815260200191505060405180910390f35b61013f6004803603602081101561011357600080fd5b81019080803573ffffffffffffffffffffffffffffffffffffffff169060200190929190505050610215565b005b600047905090565b60006001600081548092919060010191905055905060008060008381526020019081526020016000209050858160000160006101000a81548173ffffffffffffffffffffffffffffffffffffffff021916908373ffffffffffffffffffffffffffffffffffffffff160217905550848160010160006101000a81548173ffffffffffffffffffffffffffffffffffffffff021916908373ffffffffffffffffffffffffffffffffffffffff16021790555083816002018190555082816003018190555050949350505050565b8073ffffffffffffffffffffffffffffffffffffffff166108fc349081150290604051600060405180830381858888f1935050505015801561025b573d6000803e3d6000fd5b505056fea265627a7a72315820786be15b7245f5bfdf8b02a5e9598cbaea6cc31268310ab2cd71cc02b063f9a764736f6c63430005100032",
  "source": "// SPDX-License-Identifier: MIT\r\npragma solidity >=0.4.21;\r\n\r\n// Smart contract for rental contract payments\r\ncontract RentalContract {\r\n\r\n    // Rental Contract Struct with all necessary variables\r\n    struct Contract {\r\n        address payable landlordAddr;\r\n        address payable tenantAddr;\r\n        uint monthlyAmount;\r\n        uint numberMonths;\r\n    }\r\n\r\n    mapping (uint => Contract) contracts;\r\n    uint numContracts;\r\n\r\n    // Create new contract between 2 users (landlord and tenant)\r\n    function createNewContract(address payable landlordAddr, address payable tenantAddr, uint monthlyAmount, uint numberMonths) public returns (uint contractID) {\r\n        contractID = numContracts++;\r\n        Contract storage newContract = contracts[contractID];\r\n        newContract.landlordAddr = landlordAddr;\r\n        newContract.tenantAddr = tenantAddr;\r\n        newContract.monthlyAmount = monthlyAmount;\r\n        newContract.numberMonths = numberMonths;\r\n    }\r\n\r\n    // Checks balance of account\r\n    function getBalance() public view returns(uint) {\r\n        return address(this).balance;\r\n    }\r\n\r\n    // Send money from one account to another account (transaction of money)  \r\n    function payRent(address payable _To) public payable {\r\n        _To.transfer(msg.value);\r\n        // _To.call{value: msg.value, gas: 2300}(abi.encodeWithSignature(signatureString, arg);) returns (bool, bytes);\r\n    }\r\n\r\n    // Upon start of new contract, initiate the start of monthly recurring payments\r\n    // Set up monthly recurring payments\r\n    // function setupMonthlyPayments() {\r\n\r\n    // }\r\n\r\n    // Terminate smart contract\r\n    // function terminateContract() {\r\n\r\n    // }\r\n\r\n}",
  "sourcePath": "C:\\Users\\gafly\\on-the-block\\contracts\\RentalContract.sol",
  "compiler": {
    "name": "solc",
    "version": "0.5.16+commit.9c3226ce.Emscripten.clang"
  },
  "schemaVersion": "3.4.3",
  "updatedAt": "2022-04-20T17:20:11.912Z",
  "networkType": "ethereum",
  "devdoc": {
    "methods": {}
  },
  "userdoc": {
    "methods": {}
  }
}